{
  "_format": "hh-sol-artifact-1",
  "contractName": "merkletree",
  "sourceName": "contracts/merkletree.sol",
  "abi": [
    {
      "inputs": [
        {
          "internalType": "bytes32",
          "name": "_root",
          "type": "bytes32"
        }
      ],
      "stateMutability": "nonpayable",
      "type": "constructor"
    },
    {
      "anonymous": false,
      "inputs": [
        {
          "indexed": true,
          "internalType": "address",
          "name": "owner",
          "type": "address"
        },
        {
          "indexed": true,
          "internalType": "address",
          "name": "approved",
          "type": "address"
        },
        {
          "indexed": true,
          "internalType": "uint256",
          "name": "tokenId",
          "type": "uint256"
        }
      ],
      "name": "Approval",
      "type": "event"
    },
    {
      "anonymous": false,
      "inputs": [
        {
          "indexed": true,
          "internalType": "address",
          "name": "owner",
          "type": "address"
        },
        {
          "indexed": true,
          "internalType": "address",
          "name": "operator",
          "type": "address"
        },
        {
          "indexed": false,
          "internalType": "bool",
          "name": "approved",
          "type": "bool"
        }
      ],
      "name": "ApprovalForAll",
      "type": "event"
    },
    {
      "anonymous": false,
      "inputs": [
        {
          "indexed": true,
          "internalType": "address",
          "name": "previousOwner",
          "type": "address"
        },
        {
          "indexed": true,
          "internalType": "address",
          "name": "newOwner",
          "type": "address"
        }
      ],
      "name": "OwnershipTransferred",
      "type": "event"
    },
    {
      "anonymous": false,
      "inputs": [
        {
          "indexed": true,
          "internalType": "address",
          "name": "from",
          "type": "address"
        },
        {
          "indexed": true,
          "internalType": "address",
          "name": "to",
          "type": "address"
        },
        {
          "indexed": true,
          "internalType": "uint256",
          "name": "tokenId",
          "type": "uint256"
        }
      ],
      "name": "Transfer",
      "type": "event"
    },
    {
      "inputs": [
        {
          "internalType": "address",
          "name": "to",
          "type": "address"
        },
        {
          "internalType": "uint256",
          "name": "tokenId",
          "type": "uint256"
        }
      ],
      "name": "approve",
      "outputs": [],
      "stateMutability": "nonpayable",
      "type": "function"
    },
    {
      "inputs": [
        {
          "internalType": "address",
          "name": "owner",
          "type": "address"
        }
      ],
      "name": "balanceOf",
      "outputs": [
        {
          "internalType": "uint256",
          "name": "",
          "type": "uint256"
        }
      ],
      "stateMutability": "view",
      "type": "function"
    },
    {
      "inputs": [
        {
          "internalType": "uint256",
          "name": "tokenId",
          "type": "uint256"
        }
      ],
      "name": "getApproved",
      "outputs": [
        {
          "internalType": "address",
          "name": "",
          "type": "address"
        }
      ],
      "stateMutability": "view",
      "type": "function"
    },
    {
      "inputs": [
        {
          "internalType": "address",
          "name": "owner",
          "type": "address"
        },
        {
          "internalType": "address",
          "name": "operator",
          "type": "address"
        }
      ],
      "name": "isApprovedForAll",
      "outputs": [
        {
          "internalType": "bool",
          "name": "",
          "type": "bool"
        }
      ],
      "stateMutability": "view",
      "type": "function"
    },
    {
      "inputs": [
        {
          "internalType": "bytes32[]",
          "name": "proof",
          "type": "bytes32[]"
        },
        {
          "internalType": "bytes32",
          "name": "leaf",
          "type": "bytes32"
        }
      ],
      "name": "isValid",
      "outputs": [
        {
          "internalType": "bool",
          "name": "",
          "type": "bool"
        }
      ],
      "stateMutability": "view",
      "type": "function"
    },
    {
      "inputs": [],
      "name": "name",
      "outputs": [
        {
          "internalType": "string",
          "name": "",
          "type": "string"
        }
      ],
      "stateMutability": "view",
      "type": "function"
    },
    {
      "inputs": [],
      "name": "owner",
      "outputs": [
        {
          "internalType": "address",
          "name": "",
          "type": "address"
        }
      ],
      "stateMutability": "view",
      "type": "function"
    },
    {
      "inputs": [
        {
          "internalType": "uint256",
          "name": "tokenId",
          "type": "uint256"
        }
      ],
      "name": "ownerOf",
      "outputs": [
        {
          "internalType": "address",
          "name": "",
          "type": "address"
        }
      ],
      "stateMutability": "view",
      "type": "function"
    },
    {
      "inputs": [],
      "name": "renounceOwnership",
      "outputs": [],
      "stateMutability": "nonpayable",
      "type": "function"
    },
    {
      "inputs": [],
      "name": "root",
      "outputs": [
        {
          "internalType": "bytes32",
          "name": "",
          "type": "bytes32"
        }
      ],
      "stateMutability": "view",
      "type": "function"
    },
    {
      "inputs": [
        {
          "internalType": "address",
          "name": "to",
          "type": "address"
        },
        {
          "internalType": "bytes32[]",
          "name": "proof",
          "type": "bytes32[]"
        },
        {
          "internalType": "bytes32",
          "name": "leaf",
          "type": "bytes32"
        }
      ],
      "name": "safeMint",
      "outputs": [],
      "stateMutability": "nonpayable",
      "type": "function"
    },
    {
      "inputs": [
        {
          "internalType": "address",
          "name": "from",
          "type": "address"
        },
        {
          "internalType": "address",
          "name": "to",
          "type": "address"
        },
        {
          "internalType": "uint256",
          "name": "tokenId",
          "type": "uint256"
        }
      ],
      "name": "safeTransferFrom",
      "outputs": [],
      "stateMutability": "nonpayable",
      "type": "function"
    },
    {
      "inputs": [
        {
          "internalType": "address",
          "name": "from",
          "type": "address"
        },
        {
          "internalType": "address",
          "name": "to",
          "type": "address"
        },
        {
          "internalType": "uint256",
          "name": "tokenId",
          "type": "uint256"
        },
        {
          "internalType": "bytes",
          "name": "data",
          "type": "bytes"
        }
      ],
      "name": "safeTransferFrom",
      "outputs": [],
      "stateMutability": "nonpayable",
      "type": "function"
    },
    {
      "inputs": [
        {
          "internalType": "address",
          "name": "operator",
          "type": "address"
        },
        {
          "internalType": "bool",
          "name": "approved",
          "type": "bool"
        }
      ],
      "name": "setApprovalForAll",
      "outputs": [],
      "stateMutability": "nonpayable",
      "type": "function"
    },
    {
      "inputs": [
        {
          "internalType": "bytes4",
          "name": "interfaceId",
          "type": "bytes4"
        }
      ],
      "name": "supportsInterface",
      "outputs": [
        {
          "internalType": "bool",
          "name": "",
          "type": "bool"
        }
      ],
      "stateMutability": "view",
      "type": "function"
    },
    {
      "inputs": [],
      "name": "symbol",
      "outputs": [
        {
          "internalType": "string",
          "name": "",
          "type": "string"
        }
      ],
      "stateMutability": "view",
      "type": "function"
    },
    {
      "inputs": [
        {
          "internalType": "uint256",
          "name": "tokenId",
          "type": "uint256"
        }
      ],
      "name": "tokenURI",
      "outputs": [
        {
          "internalType": "string",
          "name": "",
          "type": "string"
        }
      ],
      "stateMutability": "view",
      "type": "function"
    },
    {
      "inputs": [
        {
          "internalType": "address",
          "name": "from",
          "type": "address"
        },
        {
          "internalType": "address",
          "name": "to",
          "type": "address"
        },
        {
          "internalType": "uint256",
          "name": "tokenId",
          "type": "uint256"
        }
      ],
      "name": "transferFrom",
      "outputs": [],
      "stateMutability": "nonpayable",
      "type": "function"
    },
    {
      "inputs": [
        {
          "internalType": "address",
          "name": "newOwner",
          "type": "address"
        }
      ],
      "name": "transferOwnership",
      "outputs": [],
      "stateMutability": "nonpayable",
      "type": "function"
    }
  ],
  "bytecode": "0x60806040523480156200001157600080fd5b506040516200342738038062003427833981810160405281019062000037919062000205565b6040518060400160405280600781526020017f4d79546f6b656e000000000000000000000000000000000000000000000000008152506040518060400160405280600381526020017f4d544b00000000000000000000000000000000000000000000000000000000008152508160009081620000b49190620004b1565b508060019081620000c69190620004b1565b505050620000e9620000dd620000f760201b60201c565b620000ff60201b60201c565b806007819055505062000598565b600033905090565b6000600660009054906101000a900473ffffffffffffffffffffffffffffffffffffffff16905081600660006101000a81548173ffffffffffffffffffffffffffffffffffffffff021916908373ffffffffffffffffffffffffffffffffffffffff1602179055508173ffffffffffffffffffffffffffffffffffffffff168173ffffffffffffffffffffffffffffffffffffffff167f8be0079c531659141344cd1fd0a4f28419497f9722a3daafe3b4186f6b6457e060405160405180910390a35050565b600080fd5b6000819050919050565b620001df81620001ca565b8114620001eb57600080fd5b50565b600081519050620001ff81620001d4565b92915050565b6000602082840312156200021e576200021d620001c5565b5b60006200022e84828501620001ee565b91505092915050565b600081519050919050565b7f4e487b7100000000000000000000000000000000000000000000000000000000600052604160045260246000fd5b7f4e487b7100000000000000000000000000000000000000000000000000000000600052602260045260246000fd5b60006002820490506001821680620002b957607f821691505b602082108103620002cf57620002ce62000271565b5b50919050565b60008190508160005260206000209050919050565b60006020601f8301049050919050565b600082821b905092915050565b600060088302620003397fffffffffffffffffffffffffffffffffffffffffffffffffffffffffffffffff82620002fa565b620003458683620002fa565b95508019841693508086168417925050509392505050565b6000819050919050565b6000819050919050565b6000620003926200038c62000386846200035d565b62000367565b6200035d565b9050919050565b6000819050919050565b620003ae8362000371565b620003c6620003bd8262000399565b84845462000307565b825550505050565b600090565b620003dd620003ce565b620003ea818484620003a3565b505050565b5b81811015620004125762000406600082620003d3565b600181019050620003f0565b5050565b601f82111562000461576200042b81620002d5565b6200043684620002ea565b8101602085101562000446578190505b6200045e6200045585620002ea565b830182620003ef565b50505b505050565b600082821c905092915050565b6000620004866000198460080262000466565b1980831691505092915050565b6000620004a1838362000473565b9150826002028217905092915050565b620004bc8262000237565b67ffffffffffffffff811115620004d857620004d762000242565b5b620004e48254620002a0565b620004f182828562000416565b600060209050601f83116001811462000529576000841562000514578287015190505b62000520858262000493565b86555062000590565b601f1984166200053986620002d5565b60005b8281101562000563578489015182556001820191506020850194506020810190506200053c565b868310156200058357848901516200057f601f89168262000473565b8355505b6001600288020188555050505b505050505050565b612e7f80620005a86000396000f3fe608060405234801561001057600080fd5b50600436106101215760003560e01c80638da5cb5b116100ad578063b8a20ed011610071578063b8a20ed0146102f2578063c87b56dd14610322578063e985e9c514610352578063ebf0c71714610382578063f2fde38b146103a057610121565b80638da5cb5b14610262578063920d734d1461028057806395d89b411461029c578063a22cb465146102ba578063b88d4fde146102d657610121565b806323b872dd116100f457806323b872dd146101c057806342842e0e146101dc5780636352211e146101f857806370a0823114610228578063715018a61461025857610121565b806301ffc9a71461012657806306fdde0314610156578063081812fc14610174578063095ea7b3146101a4575b600080fd5b610140600480360381019061013b9190611d10565b6103bc565b60405161014d9190611d58565b60405180910390f35b61015e61049e565b60405161016b9190611e03565b60405180910390f35b61018e60048036038101906101899190611e5b565b610530565b60405161019b9190611ec9565b60405180910390f35b6101be60048036038101906101b99190611f10565b610576565b005b6101da60048036038101906101d59190611f50565b61068d565b005b6101f660048036038101906101f19190611f50565b6106ed565b005b610212600480360381019061020d9190611e5b565b61070d565b60405161021f9190611ec9565b60405180910390f35b610242600480360381019061023d9190611fa3565b610793565b60405161024f9190611fdf565b60405180910390f35b61026061084a565b005b61026a61085e565b6040516102779190611ec9565b60405180910390f35b61029a60048036038101906102959190612178565b610888565b005b6102a46108f9565b6040516102b19190611e03565b60405180910390f35b6102d460048036038101906102cf9190612213565b61098b565b005b6102f060048036038101906102eb9190612308565b6109a1565b005b61030c6004803603810190610307919061238b565b610a03565b6040516103199190611d58565b60405180910390f35b61033c60048036038101906103379190611e5b565b610a1a565b6040516103499190611e03565b60405180910390f35b61036c600480360381019061036791906123e7565b610a82565b6040516103799190611d58565b60405180910390f35b61038a610b16565b6040516103979190612436565b60405180910390f35b6103ba60048036038101906103b59190611fa3565b610b1c565b005b60007f80ac58cd000000000000000000000000000000000000000000000000000000007bffffffffffffffffffffffffffffffffffffffffffffffffffffffff1916827bffffffffffffffffffffffffffffffffffffffffffffffffffffffff1916148061048757507f5b5e139f000000000000000000000000000000000000000000000000000000007bffffffffffffffffffffffffffffffffffffffffffffffffffffffff1916827bffffffffffffffffffffffffffffffffffffffffffffffffffffffff1916145b80610497575061049682610b9f565b5b9050919050565b6060600080546104ad90612480565b80601f01602080910402602001604051908101604052809291908181526020018280546104d990612480565b80156105265780601f106104fb57610100808354040283529160200191610526565b820191906000526020600020905b81548152906001019060200180831161050957829003601f168201915b5050505050905090565b600061053b82610c09565b6004600083815260200190815260200160002060009054906101000a900473ffffffffffffffffffffffffffffffffffffffff169050919050565b60006105818261070d565b90508073ffffffffffffffffffffffffffffffffffffffff168373ffffffffffffffffffffffffffffffffffffffff16036105f1576040517f08c379a00000000000000000000000000000000000000000000000000000000081526004016105e890612523565b60405180910390fd5b8073ffffffffffffffffffffffffffffffffffffffff16610610610c54565b73ffffffffffffffffffffffffffffffffffffffff16148061063f575061063e81610639610c54565b610a82565b5b61067e576040517f08c379a0000000000000000000000000000000000000000000000000000000008152600401610675906125b5565b60405180910390fd5b6106888383610c5c565b505050565b61069e610698610c54565b82610d15565b6106dd576040517f08c379a00000000000000000000000000000000000000000000000000000000081526004016106d490612647565b60405180910390fd5b6106e8838383610daa565b505050565b610708838383604051806020016040528060008152506109a1565b505050565b600080610719836110a3565b9050600073ffffffffffffffffffffffffffffffffffffffff168173ffffffffffffffffffffffffffffffffffffffff160361078a576040517f08c379a0000000000000000000000000000000000000000000000000000000008152600401610781906126b3565b60405180910390fd5b80915050919050565b60008073ffffffffffffffffffffffffffffffffffffffff168273ffffffffffffffffffffffffffffffffffffffff1603610803576040517f08c379a00000000000000000000000000000000000000000000000000000000081526004016107fa90612745565b60405180910390fd5b600360008373ffffffffffffffffffffffffffffffffffffffff1673ffffffffffffffffffffffffffffffffffffffff168152602001908152602001600020549050919050565b6108526110e0565b61085c600061115e565b565b6000600660009054906101000a900473ffffffffffffffffffffffffffffffffffffffff16905090565b6108928282610a03565b6108d1576040517f08c379a00000000000000000000000000000000000000000000000000000000081526004016108c8906127b1565b60405180910390fd5b6108db6008611224565b60006108e7600861123a565b90506108f38482611248565b50505050565b60606001805461090890612480565b80601f016020809104026020016040519081016040528092919081815260200182805461093490612480565b80156109815780601f1061095657610100808354040283529160200191610981565b820191906000526020600020905b81548152906001019060200180831161096457829003601f168201915b5050505050905090565b61099d610996610c54565b8383611266565b5050565b6109b26109ac610c54565b83610d15565b6109f1576040517f08c379a00000000000000000000000000000000000000000000000000000000081526004016109e890612647565b60405180910390fd5b6109fd848484846113d2565b50505050565b6000610a12836007548461142e565b905092915050565b6060610a2582610c09565b6000610a2f611445565b90506000815111610a4f5760405180602001604052806000815250610a7a565b80610a598461145c565b604051602001610a6a92919061280d565b6040516020818303038152906040525b915050919050565b6000600560008473ffffffffffffffffffffffffffffffffffffffff1673ffffffffffffffffffffffffffffffffffffffff16815260200190815260200160002060008373ffffffffffffffffffffffffffffffffffffffff1673ffffffffffffffffffffffffffffffffffffffff16815260200190815260200160002060009054906101000a900460ff16905092915050565b60075481565b610b246110e0565b600073ffffffffffffffffffffffffffffffffffffffff168173ffffffffffffffffffffffffffffffffffffffff1603610b93576040517f08c379a0000000000000000000000000000000000000000000000000000000008152600401610b8a906128a3565b60405180910390fd5b610b9c8161115e565b50565b60007f01ffc9a7000000000000000000000000000000000000000000000000000000007bffffffffffffffffffffffffffffffffffffffffffffffffffffffff1916827bffffffffffffffffffffffffffffffffffffffffffffffffffffffff1916149050919050565b610c128161152a565b610c51576040517f08c379a0000000000000000000000000000000000000000000000000000000008152600401610c48906126b3565b60405180910390fd5b50565b600033905090565b816004600083815260200190815260200160002060006101000a81548173ffffffffffffffffffffffffffffffffffffffff021916908373ffffffffffffffffffffffffffffffffffffffff160217905550808273ffffffffffffffffffffffffffffffffffffffff16610ccf8361070d565b73ffffffffffffffffffffffffffffffffffffffff167f8c5be1e5ebec7d5bd14f71427d1e84f3dd0314c0f7b2291e5b200ac8c7c3b92560405160405180910390a45050565b600080610d218361070d565b90508073ffffffffffffffffffffffffffffffffffffffff168473ffffffffffffffffffffffffffffffffffffffff161480610d635750610d628185610a82565b5b80610da157508373ffffffffffffffffffffffffffffffffffffffff16610d8984610530565b73ffffffffffffffffffffffffffffffffffffffff16145b91505092915050565b8273ffffffffffffffffffffffffffffffffffffffff16610dca8261070d565b73ffffffffffffffffffffffffffffffffffffffff1614610e20576040517f08c379a0000000000000000000000000000000000000000000000000000000008152600401610e1790612935565b60405180910390fd5b600073ffffffffffffffffffffffffffffffffffffffff168273ffffffffffffffffffffffffffffffffffffffff1603610e8f576040517f08c379a0000000000000000000000000000000000000000000000000000000008152600401610e86906129c7565b60405180910390fd5b610e9c838383600161156b565b8273ffffffffffffffffffffffffffffffffffffffff16610ebc8261070d565b73ffffffffffffffffffffffffffffffffffffffff1614610f12576040517f08c379a0000000000000000000000000000000000000000000000000000000008152600401610f0990612935565b60405180910390fd5b6004600082815260200190815260200160002060006101000a81549073ffffffffffffffffffffffffffffffffffffffff02191690556001600360008573ffffffffffffffffffffffffffffffffffffffff1673ffffffffffffffffffffffffffffffffffffffff168152602001908152602001600020600082825403925050819055506001600360008473ffffffffffffffffffffffffffffffffffffffff1673ffffffffffffffffffffffffffffffffffffffff16815260200190815260200160002060008282540192505081905550816002600083815260200190815260200160002060006101000a81548173ffffffffffffffffffffffffffffffffffffffff021916908373ffffffffffffffffffffffffffffffffffffffff160217905550808273ffffffffffffffffffffffffffffffffffffffff168473ffffffffffffffffffffffffffffffffffffffff167fddf252ad1be2c89b69c2b068fc378daa952ba7f163c4a11628f55a4df523b3ef60405160405180910390a461109e8383836001611691565b505050565b60006002600083815260200190815260200160002060009054906101000a900473ffffffffffffffffffffffffffffffffffffffff169050919050565b6110e8610c54565b73ffffffffffffffffffffffffffffffffffffffff1661110661085e565b73ffffffffffffffffffffffffffffffffffffffff161461115c576040517f08c379a000000000000000000000000000000000000000000000000000000000815260040161115390612a33565b60405180910390fd5b565b6000600660009054906101000a900473ffffffffffffffffffffffffffffffffffffffff16905081600660006101000a81548173ffffffffffffffffffffffffffffffffffffffff021916908373ffffffffffffffffffffffffffffffffffffffff1602179055508173ffffffffffffffffffffffffffffffffffffffff168173ffffffffffffffffffffffffffffffffffffffff167f8be0079c531659141344cd1fd0a4f28419497f9722a3daafe3b4186f6b6457e060405160405180910390a35050565b6001816000016000828254019250508190555050565b600081600001549050919050565b611262828260405180602001604052806000815250611697565b5050565b8173ffffffffffffffffffffffffffffffffffffffff168373ffffffffffffffffffffffffffffffffffffffff16036112d4576040517f08c379a00000000000000000000000000000000000000000000000000000000081526004016112cb90612a9f565b60405180910390fd5b80600560008573ffffffffffffffffffffffffffffffffffffffff1673ffffffffffffffffffffffffffffffffffffffff16815260200190815260200160002060008473ffffffffffffffffffffffffffffffffffffffff1673ffffffffffffffffffffffffffffffffffffffff16815260200190815260200160002060006101000a81548160ff0219169083151502179055508173ffffffffffffffffffffffffffffffffffffffff168373ffffffffffffffffffffffffffffffffffffffff167f17307eab39ab6107e8899845ad3d59bd9653f200f220920489ca2b5937696c31836040516113c59190611d58565b60405180910390a3505050565b6113dd848484610daa565b6113e9848484846116f2565b611428576040517f08c379a000000000000000000000000000000000000000000000000000000000815260040161141f90612b31565b60405180910390fd5b50505050565b60008261143b8584611879565b1490509392505050565b606060405180602001604052806000815250905090565b60606000600161146b846118cf565b01905060008167ffffffffffffffff81111561148a57611489611fff565b5b6040519080825280601f01601f1916602001820160405280156114bc5781602001600182028036833780820191505090505b509050600082602001820190505b60011561151f578080600190039150507f3031323334353637383961626364656600000000000000000000000000000000600a86061a8153600a858161151357611512612b51565b5b049450600085036114ca575b819350505050919050565b60008073ffffffffffffffffffffffffffffffffffffffff1661154c836110a3565b73ffffffffffffffffffffffffffffffffffffffff1614159050919050565b600181111561168b57600073ffffffffffffffffffffffffffffffffffffffff168473ffffffffffffffffffffffffffffffffffffffff16146115ff5780600360008673ffffffffffffffffffffffffffffffffffffffff1673ffffffffffffffffffffffffffffffffffffffff16815260200190815260200160002060008282546115f79190612baf565b925050819055505b600073ffffffffffffffffffffffffffffffffffffffff168373ffffffffffffffffffffffffffffffffffffffff161461168a5780600360008573ffffffffffffffffffffffffffffffffffffffff1673ffffffffffffffffffffffffffffffffffffffff16815260200190815260200160002060008282546116829190612be3565b925050819055505b5b50505050565b50505050565b6116a18383611a22565b6116ae60008484846116f2565b6116ed576040517f08c379a00000000000000000000000000000000000000000000000000000000081526004016116e490612b31565b60405180910390fd5b505050565b60006117138473ffffffffffffffffffffffffffffffffffffffff16611c3f565b1561186c578373ffffffffffffffffffffffffffffffffffffffff1663150b7a0261173c610c54565b8786866040518563ffffffff1660e01b815260040161175e9493929190612c6c565b6020604051808303816000875af192505050801561179a57506040513d601f19601f820116820180604052508101906117979190612ccd565b60015b61181c573d80600081146117ca576040519150601f19603f3d011682016040523d82523d6000602084013e6117cf565b606091505b506000815103611814576040517f08c379a000000000000000000000000000000000000000000000000000000000815260040161180b90612b31565b60405180910390fd5b805181602001fd5b63150b7a0260e01b7bffffffffffffffffffffffffffffffffffffffffffffffffffffffff1916817bffffffffffffffffffffffffffffffffffffffffffffffffffffffff191614915050611871565b600190505b949350505050565b60008082905060005b84518110156118c4576118af828683815181106118a2576118a1612cfa565b5b6020026020010151611c62565b915080806118bc90612d29565b915050611882565b508091505092915050565b600080600090507a184f03e93ff9f4daa797ed6e38ed64bf6a1f010000000000000000831061192d577a184f03e93ff9f4daa797ed6e38ed64bf6a1f010000000000000000838161192357611922612b51565b5b0492506040810190505b6d04ee2d6d415b85acef8100000000831061196a576d04ee2d6d415b85acef810000000083816119605761195f612b51565b5b0492506020810190505b662386f26fc10000831061199957662386f26fc10000838161198f5761198e612b51565b5b0492506010810190505b6305f5e10083106119c2576305f5e10083816119b8576119b7612b51565b5b0492506008810190505b61271083106119e75761271083816119dd576119dc612b51565b5b0492506004810190505b60648310611a0a5760648381611a00576119ff612b51565b5b0492506002810190505b600a8310611a19576001810190505b80915050919050565b600073ffffffffffffffffffffffffffffffffffffffff168273ffffffffffffffffffffffffffffffffffffffff1603611a91576040517f08c379a0000000000000000000000000000000000000000000000000000000008152600401611a8890612dbd565b60405180910390fd5b611a9a8161152a565b15611ada576040517f08c379a0000000000000000000000000000000000000000000000000000000008152600401611ad190612e29565b60405180910390fd5b611ae860008383600161156b565b611af18161152a565b15611b31576040517f08c379a0000000000000000000000000000000000000000000000000000000008152600401611b2890612e29565b60405180910390fd5b6001600360008473ffffffffffffffffffffffffffffffffffffffff1673ffffffffffffffffffffffffffffffffffffffff16815260200190815260200160002060008282540192505081905550816002600083815260200190815260200160002060006101000a81548173ffffffffffffffffffffffffffffffffffffffff021916908373ffffffffffffffffffffffffffffffffffffffff160217905550808273ffffffffffffffffffffffffffffffffffffffff16600073ffffffffffffffffffffffffffffffffffffffff167fddf252ad1be2c89b69c2b068fc378daa952ba7f163c4a11628f55a4df523b3ef60405160405180910390a4611c3b600083836001611691565b5050565b6000808273ffffffffffffffffffffffffffffffffffffffff163b119050919050565b6000818310611c7a57611c758284611c8d565b611c85565b611c848383611c8d565b5b905092915050565b600082600052816020526040600020905092915050565b6000604051905090565b600080fd5b600080fd5b60007fffffffff0000000000000000000000000000000000000000000000000000000082169050919050565b611ced81611cb8565b8114611cf857600080fd5b50565b600081359050611d0a81611ce4565b92915050565b600060208284031215611d2657611d25611cae565b5b6000611d3484828501611cfb565b91505092915050565b60008115159050919050565b611d5281611d3d565b82525050565b6000602082019050611d6d6000830184611d49565b92915050565b600081519050919050565b600082825260208201905092915050565b60005b83811015611dad578082015181840152602081019050611d92565b60008484015250505050565b6000601f19601f8301169050919050565b6000611dd582611d73565b611ddf8185611d7e565b9350611def818560208601611d8f565b611df881611db9565b840191505092915050565b60006020820190508181036000830152611e1d8184611dca565b905092915050565b6000819050919050565b611e3881611e25565b8114611e4357600080fd5b50565b600081359050611e5581611e2f565b92915050565b600060208284031215611e7157611e70611cae565b5b6000611e7f84828501611e46565b91505092915050565b600073ffffffffffffffffffffffffffffffffffffffff82169050919050565b6000611eb382611e88565b9050919050565b611ec381611ea8565b82525050565b6000602082019050611ede6000830184611eba565b92915050565b611eed81611ea8565b8114611ef857600080fd5b50565b600081359050611f0a81611ee4565b92915050565b60008060408385031215611f2757611f26611cae565b5b6000611f3585828601611efb565b9250506020611f4685828601611e46565b9150509250929050565b600080600060608486031215611f6957611f68611cae565b5b6000611f7786828701611efb565b9350506020611f8886828701611efb565b9250506040611f9986828701611e46565b9150509250925092565b600060208284031215611fb957611fb8611cae565b5b6000611fc784828501611efb565b91505092915050565b611fd981611e25565b82525050565b6000602082019050611ff46000830184611fd0565b92915050565b600080fd5b7f4e487b7100000000000000000000000000000000000000000000000000000000600052604160045260246000fd5b61203782611db9565b810181811067ffffffffffffffff8211171561205657612055611fff565b5b80604052505050565b6000612069611ca4565b9050612075828261202e565b919050565b600067ffffffffffffffff82111561209557612094611fff565b5b602082029050602081019050919050565b600080fd5b6000819050919050565b6120be816120ab565b81146120c957600080fd5b50565b6000813590506120db816120b5565b92915050565b60006120f46120ef8461207a565b61205f565b90508083825260208201905060208402830185811115612117576121166120a6565b5b835b81811015612140578061212c88826120cc565b845260208401935050602081019050612119565b5050509392505050565b600082601f83011261215f5761215e611ffa565b5b813561216f8482602086016120e1565b91505092915050565b60008060006060848603121561219157612190611cae565b5b600061219f86828701611efb565b935050602084013567ffffffffffffffff8111156121c0576121bf611cb3565b5b6121cc8682870161214a565b92505060406121dd868287016120cc565b9150509250925092565b6121f081611d3d565b81146121fb57600080fd5b50565b60008135905061220d816121e7565b92915050565b6000806040838503121561222a57612229611cae565b5b600061223885828601611efb565b9250506020612249858286016121fe565b9150509250929050565b600080fd5b600067ffffffffffffffff82111561227357612272611fff565b5b61227c82611db9565b9050602081019050919050565b82818337600083830152505050565b60006122ab6122a684612258565b61205f565b9050828152602081018484840111156122c7576122c6612253565b5b6122d2848285612289565b509392505050565b600082601f8301126122ef576122ee611ffa565b5b81356122ff848260208601612298565b91505092915050565b6000806000806080858703121561232257612321611cae565b5b600061233087828801611efb565b945050602061234187828801611efb565b935050604061235287828801611e46565b925050606085013567ffffffffffffffff81111561237357612372611cb3565b5b61237f878288016122da565b91505092959194509250565b600080604083850312156123a2576123a1611cae565b5b600083013567ffffffffffffffff8111156123c0576123bf611cb3565b5b6123cc8582860161214a565b92505060206123dd858286016120cc565b9150509250929050565b600080604083850312156123fe576123fd611cae565b5b600061240c85828601611efb565b925050602061241d85828601611efb565b9150509250929050565b612430816120ab565b82525050565b600060208201905061244b6000830184612427565b92915050565b7f4e487b7100000000000000000000000000000000000000000000000000000000600052602260045260246000fd5b6000600282049050600182168061249857607f821691505b6020821081036124ab576124aa612451565b5b50919050565b7f4552433732313a20617070726f76616c20746f2063757272656e74206f776e6560008201527f7200000000000000000000000000000000000000000000000000000000000000602082015250565b600061250d602183611d7e565b9150612518826124b1565b604082019050919050565b6000602082019050818103600083015261253c81612500565b9050919050565b7f4552433732313a20617070726f76652063616c6c6572206973206e6f7420746f60008201527f6b656e206f776e6572206f7220617070726f76656420666f7220616c6c000000602082015250565b600061259f603d83611d7e565b91506125aa82612543565b604082019050919050565b600060208201905081810360008301526125ce81612592565b9050919050565b7f4552433732313a2063616c6c6572206973206e6f7420746f6b656e206f776e6560008201527f72206f7220617070726f76656400000000000000000000000000000000000000602082015250565b6000612631602d83611d7e565b915061263c826125d5565b604082019050919050565b6000602082019050818103600083015261266081612624565b9050919050565b7f4552433732313a20696e76616c696420746f6b656e2049440000000000000000600082015250565b600061269d601883611d7e565b91506126a882612667565b602082019050919050565b600060208201905081810360008301526126cc81612690565b9050919050565b7f4552433732313a2061646472657373207a65726f206973206e6f74206120766160008201527f6c6964206f776e65720000000000000000000000000000000000000000000000602082015250565b600061272f602983611d7e565b915061273a826126d3565b604082019050919050565b6000602082019050818103600083015261275e81612722565b9050919050565b7f4e6f7420612070617274206f662057686974656c697374000000000000000000600082015250565b600061279b601783611d7e565b91506127a682612765565b602082019050919050565b600060208201905081810360008301526127ca8161278e565b9050919050565b600081905092915050565b60006127e782611d73565b6127f181856127d1565b9350612801818560208601611d8f565b80840191505092915050565b600061281982856127dc565b915061282582846127dc565b91508190509392505050565b7f4f776e61626c653a206e6577206f776e657220697320746865207a65726f206160008201527f6464726573730000000000000000000000000000000000000000000000000000602082015250565b600061288d602683611d7e565b915061289882612831565b604082019050919050565b600060208201905081810360008301526128bc81612880565b9050919050565b7f4552433732313a207472616e736665722066726f6d20696e636f72726563742060008201527f6f776e6572000000000000000000000000000000000000000000000000000000602082015250565b600061291f602583611d7e565b915061292a826128c3565b604082019050919050565b6000602082019050818103600083015261294e81612912565b9050919050565b7f4552433732313a207472616e7366657220746f20746865207a65726f2061646460008201527f7265737300000000000000000000000000000000000000000000000000000000602082015250565b60006129b1602483611d7e565b91506129bc82612955565b604082019050919050565b600060208201905081810360008301526129e0816129a4565b9050919050565b7f4f776e61626c653a2063616c6c6572206973206e6f7420746865206f776e6572600082015250565b6000612a1d602083611d7e565b9150612a28826129e7565b602082019050919050565b60006020820190508181036000830152612a4c81612a10565b9050919050565b7f4552433732313a20617070726f766520746f2063616c6c657200000000000000600082015250565b6000612a89601983611d7e565b9150612a9482612a53565b602082019050919050565b60006020820190508181036000830152612ab881612a7c565b9050919050565b7f4552433732313a207472616e7366657220746f206e6f6e20455243373231526560008201527f63656976657220696d706c656d656e7465720000000000000000000000000000602082015250565b6000612b1b603283611d7e565b9150612b2682612abf565b604082019050919050565b60006020820190508181036000830152612b4a81612b0e565b9050919050565b7f4e487b7100000000000000000000000000000000000000000000000000000000600052601260045260246000fd5b7f4e487b7100000000000000000000000000000000000000000000000000000000600052601160045260246000fd5b6000612bba82611e25565b9150612bc583611e25565b9250828203905081811115612bdd57612bdc612b80565b5b92915050565b6000612bee82611e25565b9150612bf983611e25565b9250828201905080821115612c1157612c10612b80565b5b92915050565b600081519050919050565b600082825260208201905092915050565b6000612c3e82612c17565b612c488185612c22565b9350612c58818560208601611d8f565b612c6181611db9565b840191505092915050565b6000608082019050612c816000830187611eba565b612c8e6020830186611eba565b612c9b6040830185611fd0565b8181036060830152612cad8184612c33565b905095945050505050565b600081519050612cc781611ce4565b92915050565b600060208284031215612ce357612ce2611cae565b5b6000612cf184828501612cb8565b91505092915050565b7f4e487b7100000000000000000000000000000000000000000000000000000000600052603260045260246000fd5b6000612d3482611e25565b91507fffffffffffffffffffffffffffffffffffffffffffffffffffffffffffffffff8203612d6657612d65612b80565b5b600182019050919050565b7f4552433732313a206d696e7420746f20746865207a65726f2061646472657373600082015250565b6000612da7602083611d7e565b9150612db282612d71565b602082019050919050565b60006020820190508181036000830152612dd681612d9a565b9050919050565b7f4552433732313a20746f6b656e20616c7265616479206d696e74656400000000600082015250565b6000612e13601c83611d7e565b9150612e1e82612ddd565b602082019050919050565b60006020820190508181036000830152612e4281612e06565b905091905056fea2646970667358221220805d411b992b48c2322d76706cec9dc5f7dc0d3f4b93dfd8c297e84b232ee12d64736f6c63430008110033",
  "linkReferences": {},
  "deployedLinkReferences": {}
}